node ./cancel.js
Enter Private Key: 0x00011privatekey 
pk:1ee1666
Using Nonce:7
My address:0x84d2429537f3092977660F6dc5CE39D751C7213a
Smart contract address:0x5EF83Ab1155786f146c5A00722bEF7aB683Dc0DE
Signing transaction.
Sending transaction:0xf88907843b9aca0083033450945ef83ab1155786f146c5a00722bef7ab683dc0de80a4514fcac70000000000000000000000000000000000000000000000000000000000001544819ea06cfa7c3af4b0b4919d7eb9979cea39aadd5fa8642c9b01b41a0682eabc5dd64ca065b8500b5f84ac9e038c1f0162958d11c5147898b468e427db388de24cf77fcf
{
    "blockHash": "0xdc928ba02a2b34b1719d7268bf4ddbbd7610336ca0f954d9ad62ca90b7db67ae",
    "blockNumber": 12700751,
    "contractAddress": null,
    "cumulativeGasUsed": 154253,
    "from": "0x84d2429537f3092977660f6dc5ce39d751c7213a",
    "gasUsed": 49253,
    "logs": [
        {
            "address": "0x5EF83Ab1155786f146c5A00722bEF7aB683Dc0DE",
            "topics": [
                "0xaa2a006d186dc89a3d6851834c85d16226329ac40bcad6531a5756a38ed1c90f"
            ],
            "data": "0x000000000000000000000000000000000000000000000000000000000000154400000000000000000000000000000000000000000000000000000000609655b2",
            "blockNumber": 12700751,
            "transactionHash": "0x118163e71ccb4067f1122ef0c05a8dc67be97675d026542c48b9cdbcd8af67b6",
            "transactionIndex": 5,
            "blockHash": "0xdc928ba02a2b34b1719d7268bf4ddbbd7610336ca0f954d9ad62ca90b7db67ae",
            "logIndex": 0,
            "removed": false,
            "id": "log_522abc15"
        }
    ],
    "logsBloom": "0x00000000100000000000000000000000000000000000000000000000000000000000000000000000000000000000000000000000000000000000000000000000000000000000000000000000000000000000000000000000000000000000000000000000000000000000000000000000000000000000000000000000000000000000010000000000000200000000000000000000000200000000000000000000000000000000000000000000000000000000000000000000000000000000000000000000000000000000000000400000000000000000000000000000000000000000000000000000000000000000000080000000000000000000000000000000",
    "status": true,
    "to": "0x5ef83ab1155786f146c5a00722bef7ab683dc0de",
    "transactionHash": "0x118163e71ccb4067f1122ef0c05a8dc67be97675d026542c48b9cdbcd8af67b6",
    "transactionIndex": 5
}
